:100000000C942A000C943F000C943F000C943F0089
:100010000C943F000C943F000C943F000C943F0064
:100020000C943F000C943F000C943F000C943F0054
:100030000C943F000C943F000C943F000C943F0044
:100040000C943F000C943F000C943F000C943F0034
:100050000C943F0011241FBECFE5D8E0DEBFCDBF1A
:1000600010E0A0E6B0E0EEE5F3E002C005900D92EE
:10007000AC3AB107D9F70E949D010C94AD010C94E4
:100080000000E0E6F0E080E041E050E0382F37701B
:10009000982F96959695969520812130A1F59130CF
:1000A00089F028F09230C9F0933011F163C09AB30F
:1000B000BA0102C0660F771F3A95E2F79B01292B20
:1000C0002ABB58C097B3BA0102C0660F771F3A9592
:1000D000E2F79B01292B27BB4DC094B3BA0102C0A4
:1000E000660F771F3A95E2F79B01292B24BB42C08C
:1000F00091B3BA0102C0660F771F3A95E2F79B01F0
:10010000292B21BB37C0913091F028F09230D9F0E3
:10011000933029F12FC02AB3BA0102C0660F771FAE
:100120003A95E2F7962F909592239ABB23C027B376
:10013000BA0102C0660F771F3A95E2F7962F9095A5
:10014000922397BB17C024B3BA0102C0660F771F72
:100150003A95E2F7962F9095922394BB0BC021B36A
:10016000BA0102C0660F771F3A95E2F7962F909575
:10017000922391BB8F5F3296803209F087CF08952A
:100180009BB39F70242F207F922B9BBB98B36770EB
:1001900021E030E0F90102C0EE0FFF1F6A95E2F79F
:1001A000BF016095962398BB58B38770F90102C0D0
:1001B000EE0FFF1F8A95E2F7CF015E2B58BBEFE1F0
:1001C000FEE43197F1F700C0000028B3982F909516
:1001D000292328BBEFE3FFE13197F1F700C00000CE
:1001E0002BB32F70F0E14F9FA0011124422B4BBB8A
:1001F00028B3622368BB28B3822B88BBEFE1FEE4FF
:100200003197F1F700C0000088B3982398BB8FE3C3
:100210009FE10197F1F700C0000008959BB39F7024
:10022000242F207F922B9BBB98B3677021E030E096
:10023000F90102C0EE0FFF1F6A95E2F7BF019E2B86
:1002400098BB58B38770F90102C0EE0FFF1F8A9563
:10025000E2F7CF015E2B58BBEFE1FEE43197F1F7F7
:1002600000C0000028B3982F9095292328BBEFE306
:10027000FFE13197F1F700C000002BB32F70F0E1E0
:100280004F9FA0011124422B4BBB28B3622B68BBAC
:1002900028B3822B88BBEFE1FEE43197F1F700C071
:1002A000000088B3982398BB8FE39FE10197F1F793
:1002B00000C0000008950F931F93CF93FC0120818D
:1002C000222379F08C01C0E0F801EC0FF11D408190
:1002D00069E08BE00E940E01CF5FF80180818111FF
:1002E000F3CFCF911F910F9108950E944100BB98C9
:1002F00087E893E10197F1F700C0000043E369E06C
:100300008BE00E94C00042E369E08BE00E94C000E5
:1003100048E269E08BE00E94C0004CE069E08BE0BD
:100320000E94C00046E069E08BE00E94C00041E00E
:1003300069E08BE00E94C00008950E94750180EA88
:1003400090E00E945B0140EC69E08BE00E94C000FD
:0E03500086EA90E00E945B01F2CFF894FFCFA6
:10035E000100010001000100010001000100010087
:10036E000000010001000100000001000100010079
:10037E000100010001000100010001000100010067
:10038E000100010001000100010001000100010057
:0C039E0068656C6C6F0041484D454400E0
:00000001FF
